{
  "contractName": "Battleship",
  "abi": [
    {
      "inputs": [],
      "payable": false,
      "stateMutability": "nonpayable",
      "type": "constructor"
    },
    {
      "anonymous": false,
      "inputs": [
        {
          "indexed": true,
          "internalType": "address",
          "name": "player",
          "type": "address"
        },
        {
          "indexed": false,
          "internalType": "uint8",
          "name": "x",
          "type": "uint8"
        },
        {
          "indexed": false,
          "internalType": "uint8",
          "name": "y",
          "type": "uint8"
        },
        {
          "indexed": false,
          "internalType": "bool",
          "name": "colpito",
          "type": "bool"
        }
      ],
      "name": "RisultatoAttacco",
      "type": "event"
    },
    {
      "constant": true,
      "inputs": [],
      "name": "giocatore1",
      "outputs": [
        {
          "internalType": "address",
          "name": "",
          "type": "address"
        }
      ],
      "payable": false,
      "stateMutability": "view",
      "type": "function"
    },
    {
      "constant": true,
      "inputs": [],
      "name": "giocatore2",
      "outputs": [
        {
          "internalType": "address",
          "name": "",
          "type": "address"
        }
      ],
      "payable": false,
      "stateMutability": "view",
      "type": "function"
    },
    {
      "constant": true,
      "inputs": [
        {
          "internalType": "address",
          "name": "",
          "type": "address"
        },
        {
          "internalType": "uint8",
          "name": "",
          "type": "uint8"
        },
        {
          "internalType": "uint8",
          "name": "",
          "type": "uint8"
        }
      ],
      "name": "griglia",
      "outputs": [
        {
          "internalType": "bool",
          "name": "",
          "type": "bool"
        }
      ],
      "payable": false,
      "stateMutability": "view",
      "type": "function"
    },
    {
      "constant": true,
      "inputs": [
        {
          "internalType": "address",
          "name": "",
          "type": "address"
        }
      ],
      "name": "navePiazzata",
      "outputs": [
        {
          "internalType": "bool",
          "name": "",
          "type": "bool"
        }
      ],
      "payable": false,
      "stateMutability": "view",
      "type": "function"
    },
    {
      "constant": false,
      "inputs": [],
      "name": "partecipaGioco",
      "outputs": [],
      "payable": false,
      "stateMutability": "nonpayable",
      "type": "function"
    },
    {
      "constant": false,
      "inputs": [
        {
          "internalType": "uint8",
          "name": "x",
          "type": "uint8"
        },
        {
          "internalType": "uint8",
          "name": "y",
          "type": "uint8"
        }
      ],
      "name": "piazzaNavi",
      "outputs": [],
      "payable": false,
      "stateMutability": "nonpayable",
      "type": "function"
    },
    {
      "constant": false,
      "inputs": [
        {
          "internalType": "uint8",
          "name": "x",
          "type": "uint8"
        },
        {
          "internalType": "uint8",
          "name": "y",
          "type": "uint8"
        }
      ],
      "name": "attaccoPosizione",
      "outputs": [],
      "payable": false,
      "stateMutability": "nonpayable",
      "type": "function"
    },
    {
      "constant": false,
      "inputs": [],
      "name": "impostaNaviPosizionate",
      "outputs": [],
      "payable": false,
      "stateMutability": "nonpayable",
      "type": "function"
    }
  ],
  "bytecode": "0x608060405234801561001057600080fd5b50336000806101000a81548173ffffffffffffffffffffffffffffffffffffffff021916908373ffffffffffffffffffffffffffffffffffffffff16021790555061113e806100606000396000f3fe608060405234801561001057600080fd5b50600436106100885760003560e01c80639e0c52531161005b5780639e0c525314610135578063d2951505146101ab578063d7269903146101e9578063e25b50d11461024557610088565b80630b3750191461008d57806345e76495146100d757806358330041146100e15780639020d90c1461012b575b600080fd5b610095610283565b604051808273ffffffffffffffffffffffffffffffffffffffff1673ffffffffffffffffffffffffffffffffffffffff16815260200191505060405180910390f35b6100df6102a9565b005b6100e961074e565b604051808273ffffffffffffffffffffffffffffffffffffffff1673ffffffffffffffffffffffffffffffffffffffff16815260200191505060405180910390f35b610133610773565b005b6101916004803603606081101561014b57600080fd5b81019080803573ffffffffffffffffffffffffffffffffffffffff169060200190929190803560ff169060200190929190803560ff16906020019092919050505061087a565b604051808215151515815260200191505060405180910390f35b6101e7600480360360408110156101c157600080fd5b81019080803560ff169060200190929190803560ff1690602001909291905050506108b6565b005b61022b600480360360208110156101ff57600080fd5b81019080803573ffffffffffffffffffffffffffffffffffffffff169060200190929190505050610c4a565b604051808215151515815260200191505060405180910390f35b6102816004803603604081101561025b57600080fd5b81019080803560ff169060200190929190803560ff169060200190929190505050610c6a565b005b600160009054906101000a900473ffffffffffffffffffffffffffffffffffffffff1681565b6000809054906101000a900473ffffffffffffffffffffffffffffffffffffffff1673ffffffffffffffffffffffffffffffffffffffff163373ffffffffffffffffffffffffffffffffffffffff1614806103515750600160009054906101000a900473ffffffffffffffffffffffffffffffffffffffff1673ffffffffffffffffffffffffffffffffffffffff163373ffffffffffffffffffffffffffffffffffffffff16145b6103a6576040517f08c379a000000000000000000000000000000000000000000000000000000000815260040180806020018281038252602f8152602001806110db602f913960400191505060405180910390fd5b600260003373ffffffffffffffffffffffffffffffffffffffff1673ffffffffffffffffffffffffffffffffffffffff16815260200190815260200160002060009054906101000a900460ff1615610449576040517f08c379a000000000000000000000000000000000000000000000000000000000815260040180806020018281038252602b815260200180611028602b913960400191505060405180910390fd5b600073ffffffffffffffffffffffffffffffffffffffff166000809054906101000a900473ffffffffffffffffffffffffffffffffffffffff1673ffffffffffffffffffffffffffffffffffffffff16141580156104f65750600073ffffffffffffffffffffffffffffffffffffffff16600160009054906101000a900473ffffffffffffffffffffffffffffffffffffffff1673ffffffffffffffffffffffffffffffffffffffff1614155b61054b576040517f08c379a000000000000000000000000000000000000000000000000000000000815260040180806020018281038252602c815260200180611053602c913960400191505060405180910390fd5b6001600260003373ffffffffffffffffffffffffffffffffffffffff1673ffffffffffffffffffffffffffffffffffffffff16815260200190815260200160002060006101000a81548160ff021916908315150217905550600080905060008060009054906101000a900473ffffffffffffffffffffffffffffffffffffffff1673ffffffffffffffffffffffffffffffffffffffff163373ffffffffffffffffffffffffffffffffffffffff1614610625576000809054906101000a900473ffffffffffffffffffffffffffffffffffffffff16610649565b600160009054906101000a900473ffffffffffffffffffffffffffffffffffffffff165b905060008090506000809050600360008473ffffffffffffffffffffffffffffffffffffffff1673ffffffffffffffffffffffffffffffffffffffff16815260200190815260200160002060008360ff1660ff16815260200190815260200160002060008260ff1660ff16815260200190815260200160002060009054906101000a900460ff16156106da57600193505b3373ffffffffffffffffffffffffffffffffffffffff167fef837506ab5cc3499c6698b90c9156afdcd859f4e8e7157cb0f0eb80ab96ff87838387604051808460ff1660ff1681526020018360ff1660ff16815260200182151515158152602001935050505060405180910390a250505050565b6000809054906101000a900473ffffffffffffffffffffffffffffffffffffffff1681565b600073ffffffffffffffffffffffffffffffffffffffff16600160009054906101000a900473ffffffffffffffffffffffffffffffffffffffff1673ffffffffffffffffffffffffffffffffffffffff1614610837576040517f08c379a00000000000000000000000000000000000000000000000000000000081526004018080602001828103825260178152602001807f496c2067696f636f20c3a820616c20636f6d706c65746f00000000000000000081525060200191505060405180910390fd5b33600160006101000a81548173ffffffffffffffffffffffffffffffffffffffff021916908373ffffffffffffffffffffffffffffffffffffffff160217905550565b6003602052826000526040600020602052816000526040600020602052806000526040600020600092509250509054906101000a900460ff1681565b6000809054906101000a900473ffffffffffffffffffffffffffffffffffffffff1673ffffffffffffffffffffffffffffffffffffffff163373ffffffffffffffffffffffffffffffffffffffff16148061095e5750600160009054906101000a900473ffffffffffffffffffffffffffffffffffffffff1673ffffffffffffffffffffffffffffffffffffffff163373ffffffffffffffffffffffffffffffffffffffff16145b6109b3576040517f08c379a000000000000000000000000000000000000000000000000000000000815260040180806020018281038252602f8152602001806110db602f913960400191505060405180910390fd5b600260008060009054906101000a900473ffffffffffffffffffffffffffffffffffffffff1673ffffffffffffffffffffffffffffffffffffffff1673ffffffffffffffffffffffffffffffffffffffff16815260200190815260200160002060009054906101000a900460ff168015610a98575060026000600160009054906101000a900473ffffffffffffffffffffffffffffffffffffffff1673ffffffffffffffffffffffffffffffffffffffff1673ffffffffffffffffffffffffffffffffffffffff16815260200190815260200160002060009054906101000a900460ff165b610aed576040517f08c379a000000000000000000000000000000000000000000000000000000000815260040180806020018281038252603981526020018061107f6039913960400191505060405180910390fd5b600a8260ff16108015610b035750600a8160ff16105b610b75576040517f08c379a00000000000000000000000000000000000000000000000000000000081526004018080602001828103825260158152602001807f436f6f7264696e617465206e6f6e2076616c696465000000000000000000000081525060200191505060405180910390fd5b600360003373ffffffffffffffffffffffffffffffffffffffff1673ffffffffffffffffffffffffffffffffffffffff16815260200190815260200160002060008360ff1660ff16815260200190815260200160002060008260ff1660ff16815260200190815260200160002060009054906101000a900460ff1615610c46576040517f08c379a00000000000000000000000000000000000000000000000000000000081526004018080602001828103825260238152602001806110b86023913960400191505060405180910390fd5b5050565b60026020528060005260406000206000915054906101000a900460ff1681565b6000809054906101000a900473ffffffffffffffffffffffffffffffffffffffff1673ffffffffffffffffffffffffffffffffffffffff163373ffffffffffffffffffffffffffffffffffffffff161480610d125750600160009054906101000a900473ffffffffffffffffffffffffffffffffffffffff1673ffffffffffffffffffffffffffffffffffffffff163373ffffffffffffffffffffffffffffffffffffffff16145b610d67576040517f08c379a000000000000000000000000000000000000000000000000000000000815260040180806020018281038252602f8152602001806110db602f913960400191505060405180910390fd5b600260003373ffffffffffffffffffffffffffffffffffffffff1673ffffffffffffffffffffffffffffffffffffffff16815260200190815260200160002060009054906101000a900460ff1615610e27576040517f08c379a00000000000000000000000000000000000000000000000000000000081526004018080602001828103825260198152602001807f486169206769c3a0207069617a7a61746f206c65206e6176690000000000000081525060200191505060405180910390fd5b600a8260ff16108015610e3d5750600a8160ff16105b610eaf576040517f08c379a00000000000000000000000000000000000000000000000000000000081526004018080602001828103825260158152602001807f436f6f7264696e617465206e6f6e2076616c696465000000000000000000000081525060200191505060405180910390fd5b600360003373ffffffffffffffffffffffffffffffffffffffff1673ffffffffffffffffffffffffffffffffffffffff16815260200190815260200160002060008360ff1660ff16815260200190815260200160002060008260ff1660ff16815260200190815260200160002060009054906101000a900460ff1615610f9d576040517f08c379a00000000000000000000000000000000000000000000000000000000081526004018080602001828103825260178152602001807f506f73697a696f6e65206769c3a0206f6363757061746100000000000000000081525060200191505060405180910390fd5b6001600360003373ffffffffffffffffffffffffffffffffffffffff1673ffffffffffffffffffffffffffffffffffffffff16815260200190815260200160002060008460ff1660ff16815260200190815260200160002060008360ff1660ff16815260200190815260200160002060006101000a81548160ff021916908315150217905550505056fe486169206769c3a0207365676e616c61746f2063686520686169207069617a7a61746f206c65206e617669417474656e64692063686520656e7472616d626920692067696f6361746f726920736920756e697363616e6f417474656e646920696c207069617a7a616d656e746f2064656c6c65206e61766920646120656e7472616d626920692067696f6361746f7269486169206769c3a02061747461636361746f2071756573746120706f73697a696f6e65536f6c6f20692067696f6361746f726920706f73736f6e6f2065736567756972652071756573746120617a696f6e65a265627a7a72315820c73555200ad500c8bce818272aee161a2125ef57977e84e36e8d6c199d010d6164736f6c63430005100032",
  "source": "pragma solidity ^0.5.0;\n\ncontract Battleship {\n    address public giocatore1;\n    address public giocatore2;\n    mapping(address => bool) public navePiazzata;\n    mapping(address => mapping(uint8 => mapping(uint8 => bool))) public griglia;\n\n    modifier soloGiocatori() {\n        require(msg.sender == giocatore1 || msg.sender == giocatore2, \"Solo i giocatori possono eseguire questa azione\");\n        _;\n    }\n\n    constructor() public {\n        giocatore1 = msg.sender;\n    }\n\n    function partecipaGioco() public {\n        require(giocatore2 == address(0), \"Il gioco è al completo\");\n        giocatore2 = msg.sender;\n    }\n\n    function piazzaNavi(uint8 x, uint8 y) public soloGiocatori {\n        require(!navePiazzata[msg.sender], \"Hai già piazzato le navi\");\n        require(x < 10 && y < 10, \"Coordinate non valide\");\n        require(!griglia[msg.sender][x][y], \"Posizione già occupata\");\n\n        griglia[msg.sender][x][y] = true;\n    }\n\n    function attaccoPosizione(uint8 x, uint8 y) public soloGiocatori {\n        require(navePiazzata[giocatore1] && navePiazzata[giocatore2], \"Attendi il piazzamento delle navi da entrambi i giocatori\");\n        require(x < 10 && y < 10, \"Coordinate non valide\");\n        require(!griglia[msg.sender][x][y], \"Hai già attaccato questa posizione\");\n\n        // Utilizza le coordinate (x, y) per determinare se l'attacco colpisce una nave o meno\n    }\n\n    function impostaNaviPosizionate() public soloGiocatori {\n        require(!navePiazzata[msg.sender], \"Hai già segnalato che hai piazzato le navi\");\n        require(giocatore1 != address(0) && giocatore2 != address(0), \"Attendi che entrambi i giocatori si uniscano\");\n\n        navePiazzata[msg.sender] = true;\n\n        bool colpito = false;\n        address avversario = (msg.sender == giocatore1) ? giocatore2 : giocatore1;\n\n        uint8 x = 0; // Inserisci qui la coordinata x dell'attacco\n        uint8 y = 0; // Inserisci qui la coordinata y dell'attacco\n\n        if (griglia[avversario][x][y]) {\n            // L'attacco ha colpito una nave\n            colpito = true;\n            // Aggiungi qui la logica per gestire l'effetto dell'attacco sulla nave colpita\n        }\n\n        emit RisultatoAttacco(msg.sender, x, y, colpito);\n    }\n\n    event RisultatoAttacco(address indexed player, uint8 x, uint8 y, bool colpito);\n}\n",
  "sourcePath": "/home/claudio/BATTLESHIPwET/contracts/Battleship.sol",
  "compiler": {
    "name": "solc",
    "version": "0.5.16+commit.9c3226ce.Emscripten.clang"
  },
  "schemaVersion": "3.2.2-next.0",
  "updatedAt": "2023-06-23T18:02:35.249Z",
  "devdoc": {
    "methods": {}
  },
  "userdoc": {
    "methods": {}
  }
}