{
  "contractName": "Battleship",
  "abi": [
    {
      "inputs": [],
      "stateMutability": "nonpayable",
      "type": "constructor"
    },
    {
      "anonymous": false,
      "inputs": [
        {
          "indexed": true,
          "internalType": "address",
          "name": "player",
          "type": "address"
        },
        {
          "indexed": false,
          "internalType": "uint8",
          "name": "x",
          "type": "uint8"
        },
        {
          "indexed": false,
          "internalType": "uint8",
          "name": "y",
          "type": "uint8"
        },
        {
          "indexed": false,
          "internalType": "bool",
          "name": "colpito",
          "type": "bool"
        }
      ],
      "name": "RisultatoAttacco",
      "type": "event"
    },
    {
      "inputs": [],
      "name": "giocatore1",
      "outputs": [
        {
          "internalType": "address",
          "name": "",
          "type": "address"
        }
      ],
      "stateMutability": "view",
      "type": "function",
      "constant": true
    },
    {
      "inputs": [],
      "name": "giocatore2",
      "outputs": [
        {
          "internalType": "address",
          "name": "",
          "type": "address"
        }
      ],
      "stateMutability": "view",
      "type": "function",
      "constant": true
    },
    {
      "inputs": [
        {
          "internalType": "address",
          "name": "",
          "type": "address"
        },
        {
          "internalType": "uint8",
          "name": "",
          "type": "uint8"
        },
        {
          "internalType": "uint8",
          "name": "",
          "type": "uint8"
        }
      ],
      "name": "griglia",
      "outputs": [
        {
          "internalType": "bool",
          "name": "",
          "type": "bool"
        }
      ],
      "stateMutability": "view",
      "type": "function",
      "constant": true
    },
    {
      "inputs": [
        {
          "internalType": "address",
          "name": "",
          "type": "address"
        }
      ],
      "name": "navePiazzata",
      "outputs": [
        {
          "internalType": "bool",
          "name": "",
          "type": "bool"
        }
      ],
      "stateMutability": "view",
      "type": "function",
      "constant": true
    },
    {
      "inputs": [],
      "name": "partecipaGioco",
      "outputs": [],
      "stateMutability": "nonpayable",
      "type": "function"
    },
    {
      "inputs": [
        {
          "internalType": "uint8",
          "name": "x",
          "type": "uint8"
        },
        {
          "internalType": "uint8",
          "name": "y",
          "type": "uint8"
        }
      ],
      "name": "piazzaNavi",
      "outputs": [],
      "stateMutability": "nonpayable",
      "type": "function"
    },
    {
      "inputs": [
        {
          "internalType": "uint8",
          "name": "x",
          "type": "uint8"
        },
        {
          "internalType": "uint8",
          "name": "y",
          "type": "uint8"
        }
      ],
      "name": "attaccoPosizione",
      "outputs": [],
      "stateMutability": "view",
      "type": "function",
      "constant": true
    },
    {
      "inputs": [],
      "name": "impostaNaviPosizionate",
      "outputs": [],
      "stateMutability": "nonpayable",
      "type": "function"
    }
  ],
  "bytecode": "0x608060405234801561001057600080fd5b50336000806101000a81548173ffffffffffffffffffffffffffffffffffffffff021916908373ffffffffffffffffffffffffffffffffffffffff160217905550611400806100606000396000f3fe608060405234801561001057600080fd5b50600436106100885760003560e01c80639e0c52531161005b5780639e0c5253146100dd578063d29515051461010d578063d726990314610129578063e25b50d11461015957610088565b80630b3750191461008d57806345e76495146100ab57806358330041146100b55780639020d90c146100d3575b600080fd5b610095610175565b6040516100a29190610d94565b60405180910390f35b6100b361019b565b005b6100bd6105d4565b6040516100ca9190610d94565b60405180910390f35b6100db6105f8565b005b6100f760048036038101906100f29190610e19565b6106cc565b6040516101049190610e87565b60405180910390f35b61012760048036038101906101229190610ea2565b610708565b005b610143600480360381019061013e9190610ee2565b610a26565b6040516101509190610e87565b60405180910390f35b610173600480360381019061016e9190610ea2565b610a46565b005b600160009054906101000a900473ffffffffffffffffffffffffffffffffffffffff1681565b60008054906101000a900473ffffffffffffffffffffffffffffffffffffffff1673ffffffffffffffffffffffffffffffffffffffff163373ffffffffffffffffffffffffffffffffffffffff1614806102425750600160009054906101000a900473ffffffffffffffffffffffffffffffffffffffff1673ffffffffffffffffffffffffffffffffffffffff163373ffffffffffffffffffffffffffffffffffffffff16145b610281576040517f08c379a000000000000000000000000000000000000000000000000000000000815260040161027890610f92565b60405180910390fd5b600260003373ffffffffffffffffffffffffffffffffffffffff1673ffffffffffffffffffffffffffffffffffffffff16815260200190815260200160002060009054906101000a900460ff161561030e576040517f08c379a000000000000000000000000000000000000000000000000000000000815260040161030590611024565b60405180910390fd5b600073ffffffffffffffffffffffffffffffffffffffff1660008054906101000a900473ffffffffffffffffffffffffffffffffffffffff1673ffffffffffffffffffffffffffffffffffffffff16141580156103ba5750600073ffffffffffffffffffffffffffffffffffffffff16600160009054906101000a900473ffffffffffffffffffffffffffffffffffffffff1673ffffffffffffffffffffffffffffffffffffffff1614155b6103f9576040517f08c379a00000000000000000000000000000000000000000000000000000000081526004016103f0906110b6565b60405180910390fd5b6001600260003373ffffffffffffffffffffffffffffffffffffffff1673ffffffffffffffffffffffffffffffffffffffff16815260200190815260200160002060006101000a81548160ff0219169083151502179055506000808060009054906101000a900473ffffffffffffffffffffffffffffffffffffffff1673ffffffffffffffffffffffffffffffffffffffff163373ffffffffffffffffffffffffffffffffffffffff16146104ce5760008054906101000a900473ffffffffffffffffffffffffffffffffffffffff166104f2565b600160009054906101000a900473ffffffffffffffffffffffffffffffffffffffff165b9050600080600360008473ffffffffffffffffffffffffffffffffffffffff1673ffffffffffffffffffffffffffffffffffffffff16815260200190815260200160002060008360ff1660ff16815260200190815260200160002060008260ff1660ff16815260200190815260200160002060009054906101000a900460ff161561057c57600193505b3373ffffffffffffffffffffffffffffffffffffffff167fef837506ab5cc3499c6698b90c9156afdcd859f4e8e7157cb0f0eb80ab96ff878383876040516105c6939291906110e5565b60405180910390a250505050565b60008054906101000a900473ffffffffffffffffffffffffffffffffffffffff1681565b600073ffffffffffffffffffffffffffffffffffffffff16600160009054906101000a900473ffffffffffffffffffffffffffffffffffffffff1673ffffffffffffffffffffffffffffffffffffffff1614610689576040517f08c379a000000000000000000000000000000000000000000000000000000000815260040161068090611168565b60405180910390fd5b33600160006101000a81548173ffffffffffffffffffffffffffffffffffffffff021916908373ffffffffffffffffffffffffffffffffffffffff160217905550565b6003602052826000526040600020602052816000526040600020602052806000526040600020600092509250509054906101000a900460ff1681565b60008054906101000a900473ffffffffffffffffffffffffffffffffffffffff1673ffffffffffffffffffffffffffffffffffffffff163373ffffffffffffffffffffffffffffffffffffffff1614806107af5750600160009054906101000a900473ffffffffffffffffffffffffffffffffffffffff1673ffffffffffffffffffffffffffffffffffffffff163373ffffffffffffffffffffffffffffffffffffffff16145b6107ee576040517f08c379a00000000000000000000000000000000000000000000000000000000081526004016107e590610f92565b60405180910390fd5b600260008060009054906101000a900473ffffffffffffffffffffffffffffffffffffffff1673ffffffffffffffffffffffffffffffffffffffff1673ffffffffffffffffffffffffffffffffffffffff16815260200190815260200160002060009054906101000a900460ff1680156108d3575060026000600160009054906101000a900473ffffffffffffffffffffffffffffffffffffffff1673ffffffffffffffffffffffffffffffffffffffff1673ffffffffffffffffffffffffffffffffffffffff16815260200190815260200160002060009054906101000a900460ff165b610912576040517f08c379a0000000000000000000000000000000000000000000000000000000008152600401610909906111fa565b60405180910390fd5b600a8260ff161080156109285750600a8160ff16105b610967576040517f08c379a000000000000000000000000000000000000000000000000000000000815260040161095e90611266565b60405180910390fd5b600360003373ffffffffffffffffffffffffffffffffffffffff1673ffffffffffffffffffffffffffffffffffffffff16815260200190815260200160002060008360ff1660ff16815260200190815260200160002060008260ff1660ff16815260200190815260200160002060009054906101000a900460ff1615610a22576040517f08c379a0000000000000000000000000000000000000000000000000000000008152600401610a19906112d2565b60405180910390fd5b5050565b60026020528060005260406000206000915054906101000a900460ff1681565b60008054906101000a900473ffffffffffffffffffffffffffffffffffffffff1673ffffffffffffffffffffffffffffffffffffffff163373ffffffffffffffffffffffffffffffffffffffff161480610aed5750600160009054906101000a900473ffffffffffffffffffffffffffffffffffffffff1673ffffffffffffffffffffffffffffffffffffffff163373ffffffffffffffffffffffffffffffffffffffff16145b610b2c576040517f08c379a0000000000000000000000000000000000000000000000000000000008152600401610b2390610f92565b60405180910390fd5b600260003373ffffffffffffffffffffffffffffffffffffffff1673ffffffffffffffffffffffffffffffffffffffff16815260200190815260200160002060009054906101000a900460ff1615610bb9576040517f08c379a0000000000000000000000000000000000000000000000000000000008152600401610bb09061133e565b60405180910390fd5b600a8260ff16108015610bcf5750600a8160ff16105b610c0e576040517f08c379a0000000000000000000000000000000000000000000000000000000008152600401610c0590611266565b60405180910390fd5b600360003373ffffffffffffffffffffffffffffffffffffffff1673ffffffffffffffffffffffffffffffffffffffff16815260200190815260200160002060008360ff1660ff16815260200190815260200160002060008260ff1660ff16815260200190815260200160002060009054906101000a900460ff1615610cc9576040517f08c379a0000000000000000000000000000000000000000000000000000000008152600401610cc0906113aa565b60405180910390fd5b6001600360003373ffffffffffffffffffffffffffffffffffffffff1673ffffffffffffffffffffffffffffffffffffffff16815260200190815260200160002060008460ff1660ff16815260200190815260200160002060008360ff1660ff16815260200190815260200160002060006101000a81548160ff0219169083151502179055505050565b600073ffffffffffffffffffffffffffffffffffffffff82169050919050565b6000610d7e82610d53565b9050919050565b610d8e81610d73565b82525050565b6000602082019050610da96000830184610d85565b92915050565b600080fd5b610dbd81610d73565b8114610dc857600080fd5b50565b600081359050610dda81610db4565b92915050565b600060ff82169050919050565b610df681610de0565b8114610e0157600080fd5b50565b600081359050610e1381610ded565b92915050565b600080600060608486031215610e3257610e31610daf565b5b6000610e4086828701610dcb565b9350506020610e5186828701610e04565b9250506040610e6286828701610e04565b9150509250925092565b60008115159050919050565b610e8181610e6c565b82525050565b6000602082019050610e9c6000830184610e78565b92915050565b60008060408385031215610eb957610eb8610daf565b5b6000610ec785828601610e04565b9250506020610ed885828601610e04565b9150509250929050565b600060208284031215610ef857610ef7610daf565b5b6000610f0684828501610dcb565b91505092915050565b600082825260208201905092915050565b7f536f6c6f20692067696f6361746f726920706f73736f6e6f206573656775697260008201527f652071756573746120617a696f6e650000000000000000000000000000000000602082015250565b6000610f7c602f83610f0f565b9150610f8782610f20565b604082019050919050565b60006020820190508181036000830152610fab81610f6f565b9050919050565b7f48616920207365676e616c61746f2063686520686169207069617a7a61746f2060008201527f6c65206e61766900000000000000000000000000000000000000000000000000602082015250565b600061100e602783610f0f565b915061101982610fb2565b604082019050919050565b6000602082019050818103600083015261103d81611001565b9050919050565b7f417474656e64692063686520656e7472616d626920692067696f6361746f726960008201527f20736920756e697363616e6f0000000000000000000000000000000000000000602082015250565b60006110a0602c83610f0f565b91506110ab82611044565b604082019050919050565b600060208201905081810360008301526110cf81611093565b9050919050565b6110df81610de0565b82525050565b60006060820190506110fa60008301866110d6565b61110760208301856110d6565b6111146040830184610e78565b949350505050565b7f496c2067696f636f20616c20636f6d706c65746f000000000000000000000000600082015250565b6000611152601483610f0f565b915061115d8261111c565b602082019050919050565b6000602082019050818103600083015261118181611145565b9050919050565b7f417474656e646920696c207069617a7a616d656e746f2064656c6c65206e617660008201527f6920646120656e7472616d626920692067696f6361746f726900000000000000602082015250565b60006111e4603983610f0f565b91506111ef82611188565b604082019050919050565b60006020820190508181036000830152611213816111d7565b9050919050565b7f436f6f7264696e617465206e6f6e2076616c6964650000000000000000000000600082015250565b6000611250601583610f0f565b915061125b8261121a565b602082019050919050565b6000602082019050818103600083015261127f81611243565b9050919050565b7f486169202061747461636361746f2071756573746120706f73697a696f6e6500600082015250565b60006112bc601f83610f0f565b91506112c782611286565b602082019050919050565b600060208201905081810360008301526112eb816112af565b9050919050565b7f486169207069617a7a61746f206c65206e617669000000000000000000000000600082015250565b6000611328601483610f0f565b9150611333826112f2565b602082019050919050565b600060208201905081810360008301526113578161131b565b9050919050565b7f506f73697a696f6e6520206f6363757061746100000000000000000000000000600082015250565b6000611394601383610f0f565b915061139f8261135e565b602082019050919050565b600060208201905081810360008301526113c381611387565b905091905056fea26469706673582212205d5219acb66a8de24f890cc361cf07f752fdb0a9e855650ea8c51c59fed0b01164736f6c63430008130033",
  "immutableReferences": {},
  "source": "// SPDX-License-Identifier: MIT \npragma solidity >=0.8.2 <0.9.0;\n\n\ncontract Battleship {\n    address public giocatore1;\n    address public giocatore2;\n    mapping(address => bool) public navePiazzata;\n    mapping(address => mapping(uint8 => mapping(uint8 => bool))) public griglia;\n\n    modifier soloGiocatori() {\n        require(msg.sender == giocatore1 || msg.sender == giocatore2, \"Solo i giocatori possono eseguire questa azione\");\n        _;\n    }\n\n    constructor()  {\n        giocatore1 = msg.sender;\n    }\n\n function partecipaGioco() public  {\n    require(giocatore2 == address(0), \"Il gioco al completo\");\n    giocatore2 = msg.sender;\n}\n\n\n    function piazzaNavi(uint8 x, uint8 y) public soloGiocatori {\n        require(!navePiazzata[msg.sender], \"Hai piazzato le navi\");\n        require(x < 10 && y < 10, \"Coordinate non valide\");\n        require(!griglia[msg.sender][x][y], \"Posizione  occupata\");\n\n        griglia[msg.sender][x][y] = true;\n    }\n\n    function attaccoPosizione(uint8 x, uint8 y) public view soloGiocatori {\n        require(navePiazzata[giocatore1] && navePiazzata[giocatore2], \"Attendi il piazzamento delle navi da entrambi i giocatori\");\n        require(x < 10 && y < 10, \"Coordinate non valide\");\n        require(!griglia[msg.sender][x][y], \"Hai  attaccato questa posizione\");\n\n        // Utilizza le coordinate (x, y) per determinare se l'attacco colpisce una nave o meno\n    }\n\n    function impostaNaviPosizionate() public soloGiocatori {\n        require(!navePiazzata[msg.sender], \"Hai  segnalato che hai piazzato le navi\");\n        require(giocatore1 != address(0) && giocatore2 != address(0), \"Attendi che entrambi i giocatori si uniscano\");\n\n        navePiazzata[msg.sender] = true;\n\n        bool colpito = false;\n        address avversario = (msg.sender == giocatore1) ? giocatore2 : giocatore1;\n\n        uint8 x = 0; // Inserisci qui la coordinata x dell'attacco\n        uint8 y = 0; // Inserisci qui la coordinata y dell'attacco\n\n        if (griglia[avversario][x][y]) {\n            // L'attacco ha colpito una nave\n            colpito = true;\n            // Aggiungi qui la logica per gestire l'effetto dell'attacco sulla nave colpita\n        }\n\n        emit RisultatoAttacco(msg.sender, x, y, colpito);\n    }\n\n    event RisultatoAttacco(address indexed player, uint8 x, uint8 y, bool colpito);\n}\n",
  "sourcePath": "/home/claudio/BATTLESHIPwET/contracts/Battleship.sol",
  "compiler": {
    "name": "solc",
    "version": "0.8.19+commit.7dd6d404.Emscripten.clang"
  },
  "schemaVersion": "3.4.14",
  "updatedAt": "2023-07-14T16:44:18.066Z",
  "networkType": "ethereum",
  "devdoc": {
    "kind": "dev",
    "methods": {},
    "version": 1
  },
  "userdoc": {
    "kind": "user",
    "methods": {},
    "version": 1
  }
}